:060000000A128A11FC2F18
:100C5400F401F501701C2F2E302E362E7208F40785
:100C64000318F50A7308F50701300310F20DF30DAC
:100C7400FF3E031D372E01300310F10CF00CFF3E34
:100C8400031D3E2E70087104031D492E4A2E2C2E7E
:100C94007508F1007408F000080083160317890131
:100CA4008801831603138801FF308312031388001D
:100CB400AC01AD01AE01AF01B001B101B201B301AC
:100CC400B401B501B601B7010130A0000030A100A4
:100CD4000130A2000030A3000130A4000030A500C0
:100CE4000130A6000030A7000130A8000030A900A0
:100CF4000130AA000030AB00B801B901EE2F210881
:100D0400F1002008F0008830F2001330F3000A12DA
:100D14008A112A260A128A118312031339087106CA
:100D2400031D962E38087006031D992E9A2EC22E86
:100D34002C189D2EA12E831203138817A42E831220
:100D440003138813881BA72EAB2E831203130814D6
:100D5400AE2E8312031308100130A0070318A10A52
:100D64000030A1072C082D040319B92EBB2E013025
:100D7400BC2E0030F600F7017608AC007708AD0011
:100D84002308F1002208F0002C30F2000230F300B6
:100D94000A128A112A260A128A11831203133908A5
:100DA4007106031DD72E38087006031DDA2EDB2EBC
:100DB400032F2E18DE2EE22E831203138816E52E3F
:100DC400831203138812881AE82EEC2E831203135D
:100DD4008814EF2E8312031388100130A20703181E
:100DE400A30A0030A3072E082F040319FA2EFC2EA1
:100DF4000130FD2E0030F600F7017608AE007708CA
:100E0400AF002508F1002408F000E230F2000430BD
:100E1400F3000A128A112A260A128A118312031372
:100E240039087106031D182F38087006031D1B2F7F
:100E34001C2F3A2F30181F2F232F8312031308154A
:100E4400262F8312031308110130A4070318A50ADF
:100E54000030A507300831040319312F332F013036
:100E6400342F0030F600F7017608B0007708B1009F
:100E74002708F1002608F0008330F2000630F30062
:100E84000A128A112A260A128A11831203133908B4
:100E94007106031D4F2F38087006031D522F532F60
:100EA400712F3218562F5A2F8312031388155D2F72
:100EB4008312031388110130A6070318A70A003010
:100EC400A707320833040319682F6A2F01306B2FE8
:100ED4000030F600F7017608B2007708B30029085D
:100EE400F1002808F000E830F2000330F3000A12A1
:100EF4008A112A260A128A118312031339087106E9
:100F0400031D862F38087006031D892F8A2FA82FEA
:100F140034188D2F912F831203130816942F8312E4
:100F2400031308120130A8070318A90A0030A907FF
:100F34003408350403199F2FA12F0130A22F00304C
:100F4400F600F7017608B4007708B5002B08F10025
:100F54002A08F000C430F2000930F3000A128A11A2
:100F64002A260A128A118312031339087106031DF3
:100F7400BD2F38087006031DC02FC12FDF2F361870
:100F8400C42FC82F831203130817CB2F8312031304
:100F940008130130AA070318AB0A0030AB07360860
:100FA40037040319D62FD82F0130D92F0030F6007B
:100FB400F7017608B6007708B700C730F600E22FCD
:100FC400F60BE12FE52FE62F013083120313B80748
:100FD4000318B90A0030B907273039021130031950
:100FE4003802031CF62FF72F812E8801F82F0A12DE
:0C0FF4008A11002883010A128A114F2E76
:04400E00F220FF3F5E
:00000001FF
